{
  "_format": "hh-sol-artifact-1",
  "contractName": "Raffle",
  "sourceName": "contracts/Raffle.sol",
  "abi": [
    {
      "inputs": [
        {
          "internalType": "address",
          "name": "vrfCoordinatorV2",
          "type": "address"
        },
        {
          "internalType": "uint256",
          "name": "entranceFee",
          "type": "uint256"
        },
        {
          "internalType": "bytes32",
          "name": "gasLane",
          "type": "bytes32"
        },
        {
          "internalType": "uint64",
          "name": "subscriptionid",
          "type": "uint64"
        },
        {
          "internalType": "uint32",
          "name": "callbackGasLimit",
          "type": "uint32"
        },
        {
          "internalType": "uint256",
          "name": "interval",
          "type": "uint256"
        }
      ],
      "stateMutability": "nonpayable",
      "type": "constructor"
    },
    {
      "inputs": [
        {
          "internalType": "address",
          "name": "have",
          "type": "address"
        },
        {
          "internalType": "address",
          "name": "want",
          "type": "address"
        }
      ],
      "name": "OnlyCoordinatorCanFulfill",
      "type": "error"
    },
    {
      "inputs": [],
      "name": "Raffle__NotEnoughETHEntered",
      "type": "error"
    },
    {
      "inputs": [],
      "name": "Raffle__NotOpen",
      "type": "error"
    },
    {
      "inputs": [],
      "name": "Raffle__TransferFailed",
      "type": "error"
    },
    {
      "inputs": [
        {
          "internalType": "uint256",
          "name": "currentBalance",
          "type": "uint256"
        },
        {
          "internalType": "uint256",
          "name": "numPlayers",
          "type": "uint256"
        },
        {
          "internalType": "uint256",
          "name": "raffleState",
          "type": "uint256"
        }
      ],
      "name": "Raffle__UpkeepNotNeeded",
      "type": "error"
    },
    {
      "anonymous": false,
      "inputs": [
        {
          "indexed": true,
          "internalType": "address",
          "name": "player",
          "type": "address"
        }
      ],
      "name": "RaffleEnter",
      "type": "event"
    },
    {
      "anonymous": false,
      "inputs": [
        {
          "indexed": true,
          "internalType": "uint256",
          "name": "requestId",
          "type": "uint256"
        }
      ],
      "name": "RequestedRaffleWInner",
      "type": "event"
    },
    {
      "anonymous": false,
      "inputs": [
        {
          "indexed": true,
          "internalType": "address",
          "name": "winner",
          "type": "address"
        }
      ],
      "name": "WinnerPicked",
      "type": "event"
    },
    {
      "inputs": [
        {
          "internalType": "bytes",
          "name": "",
          "type": "bytes"
        }
      ],
      "name": "checkUpkeep",
      "outputs": [
        {
          "internalType": "bool",
          "name": "upkeepNeeded",
          "type": "bool"
        },
        {
          "internalType": "bytes",
          "name": "",
          "type": "bytes"
        }
      ],
      "stateMutability": "nonpayable",
      "type": "function"
    },
    {
      "inputs": [],
      "name": "enterRaffle",
      "outputs": [],
      "stateMutability": "payable",
      "type": "function"
    },
    {
      "inputs": [],
      "name": "getEntranceFee",
      "outputs": [
        {
          "internalType": "uint256",
          "name": "",
          "type": "uint256"
        }
      ],
      "stateMutability": "view",
      "type": "function"
    },
    {
      "inputs": [],
      "name": "getLatestTimestamp",
      "outputs": [
        {
          "internalType": "uint256",
          "name": "",
          "type": "uint256"
        }
      ],
      "stateMutability": "view",
      "type": "function"
    },
    {
      "inputs": [],
      "name": "getNumWords",
      "outputs": [
        {
          "internalType": "uint256",
          "name": "",
          "type": "uint256"
        }
      ],
      "stateMutability": "pure",
      "type": "function"
    },
    {
      "inputs": [],
      "name": "getNumberOfPlayers",
      "outputs": [
        {
          "internalType": "uint256",
          "name": "",
          "type": "uint256"
        }
      ],
      "stateMutability": "view",
      "type": "function"
    },
    {
      "inputs": [
        {
          "internalType": "uint256",
          "name": "index",
          "type": "uint256"
        }
      ],
      "name": "getPlayers",
      "outputs": [
        {
          "internalType": "address",
          "name": "",
          "type": "address"
        }
      ],
      "stateMutability": "view",
      "type": "function"
    },
    {
      "inputs": [],
      "name": "getRaffleState",
      "outputs": [
        {
          "internalType": "enum Raffle.RaffleState",
          "name": "",
          "type": "uint8"
        }
      ],
      "stateMutability": "view",
      "type": "function"
    },
    {
      "inputs": [],
      "name": "getRecentWinner",
      "outputs": [
        {
          "internalType": "address",
          "name": "",
          "type": "address"
        }
      ],
      "stateMutability": "view",
      "type": "function"
    },
    {
      "inputs": [],
      "name": "getRequestConfirmation",
      "outputs": [
        {
          "internalType": "uint256",
          "name": "",
          "type": "uint256"
        }
      ],
      "stateMutability": "pure",
      "type": "function"
    },
    {
      "inputs": [
        {
          "internalType": "bytes",
          "name": "",
          "type": "bytes"
        }
      ],
      "name": "performUpkeep",
      "outputs": [],
      "stateMutability": "nonpayable",
      "type": "function"
    },
    {
      "inputs": [
        {
          "internalType": "uint256",
          "name": "requestId",
          "type": "uint256"
        },
        {
          "internalType": "uint256[]",
          "name": "randomWords",
          "type": "uint256[]"
        }
      ],
      "name": "rawFulfillRandomWords",
      "outputs": [],
      "stateMutability": "nonpayable",
      "type": "function"
    }
  ],
  "bytecode": "0x6101606040523480156200001257600080fd5b50604051620017bc380380620017bc8339818101604052810190620000389190620002a0565b858073ffffffffffffffffffffffffffffffffffffffff1660808173ffffffffffffffffffffffffffffffffffffffff1660601b81525050508460a081815250508573ffffffffffffffffffffffffffffffffffffffff1660c08173ffffffffffffffffffffffffffffffffffffffff1660601b815250508360e081815250508267ffffffffffffffff166101008167ffffffffffffffff1660c01b815250508163ffffffff166101208163ffffffff1660e01b815250506000600160146101000a81548160ff021916908360018111156200011957620001186200033c565b5b0217905550426002819055508061014081815250505050505050506200036b565b600080fd5b600073ffffffffffffffffffffffffffffffffffffffff82169050919050565b60006200016c826200013f565b9050919050565b6200017e816200015f565b81146200018a57600080fd5b50565b6000815190506200019e8162000173565b92915050565b6000819050919050565b620001b981620001a4565b8114620001c557600080fd5b50565b600081519050620001d981620001ae565b92915050565b6000819050919050565b620001f481620001df565b81146200020057600080fd5b50565b6000815190506200021481620001e9565b92915050565b600067ffffffffffffffff82169050919050565b62000239816200021a565b81146200024557600080fd5b50565b60008151905062000259816200022e565b92915050565b600063ffffffff82169050919050565b6200027a816200025f565b81146200028657600080fd5b50565b6000815190506200029a816200026f565b92915050565b60008060008060008060c08789031215620002c057620002bf6200013a565b5b6000620002d089828a016200018d565b9650506020620002e389828a01620001c8565b9550506040620002f689828a0162000203565b94505060606200030989828a0162000248565b93505060806200031c89828a0162000289565b92505060a06200032f89828a01620001c8565b9150509295509295509295565b7f4e487b7100000000000000000000000000000000000000000000000000000000600052602160045260246000fd5b60805160601c60a05160c05160601c60e0516101005160c01c6101205160e01c610140516113dc620003e060003960006107df015260006106550152600061063201526000610611015260006105d50152600081816102b401526103b10152600081816102f1015261034501526113dc6000f3fe6080604052600436106100a75760003560e01c8063473f1ddc11610064578063473f1ddc1461019b57806353a2c19a146101c65780636e04ff0d146101f1578063ca6a9ef81461022f578063f43b52cb1461025a578063fd6673f514610285576100a7565b806309bc33a7146100ac578063115cbaf5146100d75780631fe543e3146101025780632cfcc5391461012b5780634585e33b14610135578063460e20491461015e575b600080fd5b3480156100b857600080fd5b506100c16102b0565b6040516100ce9190610b5d565b60405180910390f35b3480156100e357600080fd5b506100ec6102d8565b6040516100f99190610bef565b60405180910390f35b34801561010e57600080fd5b5061012960048036038101906101249190610da3565b6102ef565b005b6101336103af565b005b34801561014157600080fd5b5061015c60048036038101906101579190610e5a565b61051e565b005b34801561016a57600080fd5b5061018560048036038101906101809190610ea7565b61071d565b6040516101929190610f15565b60405180910390f35b3480156101a757600080fd5b506101b0610764565b6040516101bd9190610f15565b60405180910390f35b3480156101d257600080fd5b506101db61078e565b6040516101e89190610b5d565b60405180910390f35b3480156101fd57600080fd5b5061021860048036038101906102139190610fe5565b61079d565b6040516102269291906110d1565b60405180910390f35b34801561023b57600080fd5b50610244610849565b6040516102519190610b5d565b60405180910390f35b34801561026657600080fd5b5061026f610856565b60405161027c9190610b5d565b60405180910390f35b34801561029157600080fd5b5061029a610860565b6040516102a79190610b5d565b60405180910390f35b60007f0000000000000000000000000000000000000000000000000000000000000000905090565b6000600160149054906101000a900460ff16905090565b7f000000000000000000000000000000000000000000000000000000000000000073ffffffffffffffffffffffffffffffffffffffff163373ffffffffffffffffffffffffffffffffffffffff16146103a157337f00000000000000000000000000000000000000000000000000000000000000006040517f1cf993f4000000000000000000000000000000000000000000000000000000008152600401610398929190611101565b60405180910390fd5b6103ab828261086c565b5050565b7f0000000000000000000000000000000000000000000000000000000000000000341015610409576040517fbd4e069500000000000000000000000000000000000000000000000000000000815260040160405180910390fd5b6000600181111561041d5761041c610b78565b5b600160149054906101000a900460ff16600181111561043f5761043e610b78565b5b14610476576040517f1425571c00000000000000000000000000000000000000000000000000000000815260040160405180910390fd5b6000339080600181540180825580915050600190039060005260206000200160009091909190916101000a81548173ffffffffffffffffffffffffffffffffffffffff021916908373ffffffffffffffffffffffffffffffffffffffff1602179055503373ffffffffffffffffffffffffffffffffffffffff167f0805e1d667bddb8a95f0f09880cf94f403fb596ce79928d9f29b74203ba284d460405160405180910390a2565b60006105386040518060200160405280600081525061079d565b509050806105a75747600080549050600160149054906101000a900460ff16600181111561056957610568610b78565b5b6040517f584327aa00000000000000000000000000000000000000000000000000000000815260040161059e9392919061112a565b60405180910390fd5b60018060146101000a81548160ff021916908360018111156105cc576105cb610b78565b5b021790555060007f000000000000000000000000000000000000000000000000000000000000000073ffffffffffffffffffffffffffffffffffffffff16635d3b1d307f00000000000000000000000000000000000000000000000000000000000000007f000000000000000000000000000000000000000000000000000000000000000060037f000000000000000000000000000000000000000000000000000000000000000060016040518663ffffffff1660e01b81526004016106969594939291906111d9565b602060405180830381600087803b1580156106b057600080fd5b505af11580156106c4573d6000803e3d6000fd5b505050506040513d601f19601f820116820180604052508101906106e89190611241565b9050807f98a9e0c1232fa3f37834815606ddf7533ea911660c46c9b4e745a2ba9f28b0fc60405160405180910390a250505050565b60008082815481106107325761073161126e565b5b9060005260206000200160009054906101000a900473ffffffffffffffffffffffffffffffffffffffff169050919050565b6000600160009054906101000a900473ffffffffffffffffffffffffffffffffffffffff16905090565b6000600163ffffffff16905090565b6000606060008060018111156107b6576107b5610b78565b5b600160149054906101000a900460ff1660018111156107d8576107d7610b78565b5b14905060007f00000000000000000000000000000000000000000000000000000000000000006002544261080c91906112cc565b1190506000806000805490501190506000804711905083801561082c5750825b80156108355750815b801561083e5750805b955050505050915091565b6000600361ffff16905090565b6000600254905090565b60008080549050905090565b60008080549050826000815181106108875761088661126e565b5b6020026020010151610899919061132f565b905060008082815481106108b0576108af61126e565b5b9060005260206000200160009054906101000a900473ffffffffffffffffffffffffffffffffffffffff16905080600160006101000a81548173ffffffffffffffffffffffffffffffffffffffff021916908373ffffffffffffffffffffffffffffffffffffffff1602179055506000600160146101000a81548160ff0219169083600181111561094457610943610b78565b5b0217905550600067ffffffffffffffff81111561096457610963610c60565b5b6040519080825280602002602001820160405280156109925781602001602082028036833780820191505090505b50600090805190602001906109a8929190610a9d565b504260028190555060008173ffffffffffffffffffffffffffffffffffffffff16476040516109d690611391565b60006040518083038185875af1925050503d8060008114610a13576040519150601f19603f3d011682016040523d82523d6000602084013e610a18565b606091505b5050905080610a53576040517fa1d04b3900000000000000000000000000000000000000000000000000000000815260040160405180910390fd5b8173ffffffffffffffffffffffffffffffffffffffff167f5b690ec4a06fe979403046eaeea5b3ce38524683c3001f662c8b5a829632f7df60405160405180910390a25050505050565b828054828255906000526020600020908101928215610b16579160200282015b82811115610b155782518260006101000a81548173ffffffffffffffffffffffffffffffffffffffff021916908373ffffffffffffffffffffffffffffffffffffffff16021790555091602001919060010190610abd565b5b509050610b239190610b27565b5090565b5b80821115610b40576000816000905550600101610b28565b5090565b6000819050919050565b610b5781610b44565b82525050565b6000602082019050610b726000830184610b4e565b92915050565b7f4e487b7100000000000000000000000000000000000000000000000000000000600052602160045260246000fd5b60028110610bb857610bb7610b78565b5b50565b6000819050610bc982610ba7565b919050565b6000610bd982610bbb565b9050919050565b610be981610bce565b82525050565b6000602082019050610c046000830184610be0565b92915050565b6000604051905090565b600080fd5b600080fd5b610c2781610b44565b8114610c3257600080fd5b50565b600081359050610c4481610c1e565b92915050565b600080fd5b6000601f19601f8301169050919050565b7f4e487b7100000000000000000000000000000000000000000000000000000000600052604160045260246000fd5b610c9882610c4f565b810181811067ffffffffffffffff82111715610cb757610cb6610c60565b5b80604052505050565b6000610cca610c0a565b9050610cd68282610c8f565b919050565b600067ffffffffffffffff821115610cf657610cf5610c60565b5b602082029050602081019050919050565b600080fd5b6000610d1f610d1a84610cdb565b610cc0565b90508083825260208201905060208402830185811115610d4257610d41610d07565b5b835b81811015610d6b5780610d578882610c35565b845260208401935050602081019050610d44565b5050509392505050565b600082601f830112610d8a57610d89610c4a565b5b8135610d9a848260208601610d0c565b91505092915050565b60008060408385031215610dba57610db9610c14565b5b6000610dc885828601610c35565b925050602083013567ffffffffffffffff811115610de957610de8610c19565b5b610df585828601610d75565b9150509250929050565b600080fd5b60008083601f840112610e1a57610e19610c4a565b5b8235905067ffffffffffffffff811115610e3757610e36610dff565b5b602083019150836001820283011115610e5357610e52610d07565b5b9250929050565b60008060208385031215610e7157610e70610c14565b5b600083013567ffffffffffffffff811115610e8f57610e8e610c19565b5b610e9b85828601610e04565b92509250509250929050565b600060208284031215610ebd57610ebc610c14565b5b6000610ecb84828501610c35565b91505092915050565b600073ffffffffffffffffffffffffffffffffffffffff82169050919050565b6000610eff82610ed4565b9050919050565b610f0f81610ef4565b82525050565b6000602082019050610f2a6000830184610f06565b92915050565b600080fd5b600067ffffffffffffffff821115610f5057610f4f610c60565b5b610f5982610c4f565b9050602081019050919050565b82818337600083830152505050565b6000610f88610f8384610f35565b610cc0565b905082815260208101848484011115610fa457610fa3610f30565b5b610faf848285610f66565b509392505050565b600082601f830112610fcc57610fcb610c4a565b5b8135610fdc848260208601610f75565b91505092915050565b600060208284031215610ffb57610ffa610c14565b5b600082013567ffffffffffffffff81111561101957611018610c19565b5b61102584828501610fb7565b91505092915050565b60008115159050919050565b6110438161102e565b82525050565b600081519050919050565b600082825260208201905092915050565b60005b83811015611083578082015181840152602081019050611068565b83811115611092576000848401525b50505050565b60006110a382611049565b6110ad8185611054565b93506110bd818560208601611065565b6110c681610c4f565b840191505092915050565b60006040820190506110e6600083018561103a565b81810360208301526110f88184611098565b90509392505050565b60006040820190506111166000830185610f06565b6111236020830184610f06565b9392505050565b600060608201905061113f6000830186610b4e565b61114c6020830185610b4e565b6111596040830184610b4e565b949350505050565b6000819050919050565b61117481611161565b82525050565b600067ffffffffffffffff82169050919050565b6111978161117a565b82525050565b600061ffff82169050919050565b6111b48161119d565b82525050565b600063ffffffff82169050919050565b6111d3816111ba565b82525050565b600060a0820190506111ee600083018861116b565b6111fb602083018761118e565b61120860408301866111ab565b61121560608301856111ca565b61122260808301846111ca565b9695505050505050565b60008151905061123b81610c1e565b92915050565b60006020828403121561125757611256610c14565b5b60006112658482850161122c565b91505092915050565b7f4e487b7100000000000000000000000000000000000000000000000000000000600052603260045260246000fd5b7f4e487b7100000000000000000000000000000000000000000000000000000000600052601160045260246000fd5b60006112d782610b44565b91506112e283610b44565b9250828210156112f5576112f461129d565b5b828203905092915050565b7f4e487b7100000000000000000000000000000000000000000000000000000000600052601260045260246000fd5b600061133a82610b44565b915061134583610b44565b92508261135557611354611300565b5b828206905092915050565b600081905092915050565b50565b600061137b600083611360565b91506113868261136b565b600082019050919050565b600061139c8261136e565b915081905091905056fea2646970667358221220606619bef8b40cc379fb9101c1d63cbc6e9c18860cc5e5ea42bc9eaa962b03c664736f6c63430008080033",
  "linkReferences": {},
  "deployedLinkReferences": {}
}